S0100000696E7472727570742E737265638C
S11300004FC000005DC000005BC0000059C000008C
S113001057C0000056C0000053C0000051C000008B
S11300204FC000004DC000004BC0000049C000009C
S113003047C0000045C0000043C0000041C00000AC
S11300403FC000003DC000003BC0000039C00000BC
S113005037C0000035C0000033C0000031C00000CC
S11300602FC000002DC000002BC0000029C00000DC
S113007027C0000025C0000023C0000021C00000EC
S11300801FC000001DC000001BC000008A008D00BE
S113009090009300960099009C009F00A200A50088
S11300A011241FBECFEFD0E1DEBFCDBF21E0A0E021
S11300B0B1E001C01D92A230B207E1F74AD06CC092
S11300C09FCF1F920F920FB60F9211248F939F937D
S11300D081E08BBB8FE39CE90197F1F700C000003E
S11300E080E188BF81B9809100019091010101965E
S11300F090930101809300019F918F910F900FBE07
S11301000F901F9018958A30910510F5FC01EA5B59
S1130110FF4F39C08FE38093650086E080936500CC
S11301208BE5809365008FE48093650086E6809379
S113013065008DE6809365008CE78093650087E019
S1130140809365008FE78093650087E68093650060
S1130150089581E08ABB8FEF84BB809364008FB7DE
S113016080688FBF80E389BF8FE08ABFD1E005E656
S113017010E0C7E0DBBBF801C083809100019091DF
S11301800101C1DFF7CFEE0FFF1F0024001C0BBEDF
S10F01900790F691E02D0994F894FFCF3D
S9030000FC
