:1000000045C0000058C0000056C0000054C00000A9
:1000100052C0000050C000004EC000004CC00000A4
:100020004AC0000048C0000046C0000044C00000B4
:1000300042C0000040C000003EC000003CC00000C4
:100040003AC0000038C0000036C0000034C00000D4
:1000500032C0000030C000002EC000002CC00000E4
:100060002AC0000028C0000026C0000024C00000F4
:1000700022C0000020C000001EC000001CC0000004
:100080001AC0000018C0000016C0000011241FBED6
:10009000CFEFD0E1DEBFCDBF11E0A0E0B1E0E4EDF5
:1000A000F3E000E00BBF02C007900D92A035B1074E
:1000B000D9F752D18DC1A4CF86E080939D0088E10D
:1000C00080939A001092980088E080939900089598
:1000D000EBE9F0E0908195FFFDCF80939C000895BF
:1000E000CF93DF93EC018881882351F08D3041F06C
:1000F000219602C08D3021F0EBDF89918111FACF7A
:10010000DF91CF910895EBE9F0E080818823ECF74F
:1001100080919C000895EFE9FFE03197F1F700C06E
:10012000000091E095BB000095E095BB00C000C0C9
:100130008093620000C015BAF5E0FA95F1F700006F
:100140000895EFE9FFE03197F1F700C0000015BA1C
:10015000000094E095BB00C000C08093620000C026
:1001600015BA00C000C00895EF92FF920F931F933D
:10017000CF93DF93EC018881882351F18D30F9F41E
:1001800027C0F70181917F01882311F18D3001F1A2
:10019000C2DF2196C031D105A1F780ECD2DFF80192
:1001A00080898823A9F08D3099F0E801619602C01A
:1001B0008D3071F0B0DF89918111FACF09C08E01C5
:1001C000AADF7E01FFEFEF1AFF0AC1E0D0E0D9CF2E
:1001D000DF91CF911F910F91FF90EF9008952FEF36
:1001E00083EF91E0215080409040E1F700C0000093
:1001F00080E3A7DF8FE19EE40197F1F700C00000E4
:1002000080E39FDF83E991E00197F1F700C00000F0
:1002100080E397DF00C088E394DF95ED9A95F1F7CE
:1002200000008FE08EDF25ED2A95F1F7000081E0D8
:1002300088DF8FE098E10197F1F700C0000086E0C9
:1002400080DF95ED9A95F1F70000089587E088BB6F
:100250002FEF83ED90E3215080409040E1F700C004
:100260000000089586E188BB2FEF83ED90E32150D5
:1002700080409040E1F700C000000895CF93DF93E5
:10028000CDB7DEB7A8970FB6F894DEBF0FBECDBFCF
:10029000FC019081933569F118F4973431F053C023
:1002A000973619F0933729F14EC081818F7D8F34B5
:1002B00009F049C089E0E0E0F1E0DE01119601902B
:1002C0000D928A95E1F7FE013A968FE1DF011D92CA
:1002D0008A95E9F781E035DF8FE098E10197F1F742
:1002E00000C0000080E82DDFCE0101963DDFBADFBF
:1002F0002AC081818F7D843531F582818F7D8F3455
:1003000011F583818F7D8035F1F48BE0E8E2F1E037
:10031000DE01119601900D928A95E1F7FE013C965F
:100320008DE1DF011D928A95E9F781E00ADF8FE018
:1003300098E10197F1F700C0000080E802DFCE01EC
:10034000019612DF83DFA8960FB6F894DEBF0FBECA
:10035000CDBFDF91CF910895CF93DF93CDB7DEB7B7
:10036000E2970FB6F894DEBF0FBECDBF8FEF80933C
:10037000610084BB87BB33DF9FDE00E010E0C3DE9B
:100380008A3079F4E1E0F0E0EC0FFD1FE00FF11F9F
:100390001082CE010196A4DE8AE09ADE00E010E031
:1003A00013C08D3041F4E1E0F0E0EC0FFD1FE00FF1
:1003B000F11F108209C0E1E0F0E0EC0FFD1FE00F3B
:1003C000F11F80830F5F1F4FCE01019657DFD7CFFC
:0403D000F894FFCFCF
:1003D4006D6F746F7220435700000000000000002E
:1003E4000000000000000000000000000000000009
:1003F40000000000000000006D6F746F7220535401
:100404004F50000000000000000000000000000049
:1004140000000000000000000000000000000000D8
:00000001FF
