:1000000045C000004BC0000049C0000047C00000D0
:1000100045C0000043C0000041C000003FC00000D8
:100020003DC000003BC0000039C0000037C00000E8
:1000300035C0000033C0000031C000002FC00000F8
:100040002DC000002BC0000029C0000027C0000008
:1000500025C0000023C0000021C000001FC0000018
:100060001DC000001BC0000019C0000017C0000028
:1000700015C0000013C0000011C000000FC0000038
:100080000DC000000BC0000009C0000011241FBEFD
:10009000CFEFD0E1DEBFCDBFA1D0DDC0B1CFEFE962
:1000A000FFE03197F1F700C0000015BA000094E0BE
:1000B00095BB00C000C08093620000C015BA00006C
:1000C00008952FEF83EF91E0215080409040E1F7B9
:1000D00000C0000080E3E3DF8FE19EE40197F1F7C9
:1000E00000C0000080E3DBDF83E991E00197F1F7D6
:1000F00000C0000080E3D3DF00C088E3D0DF95EDCF
:100100009A95F1F700008CE0CADF25ED2A95F1F70A
:10011000000081E0C4DF8FE098E10197F1F700C0B3
:10012000000086E0BCDF95ED9A95F1F70000089598
:10013000EFE9FFE03197F1F700C0000091E095BBD7
:10014000000095E095BB00C000C08093620000C035
:1001500015BAF5E0FA95F1F700000895EF92FF92D5
:100160000F931F93CF93DF93EC018881811118C007
:1001700020C0F70181917F018823D9F0D9DF219632
:10018000C031D105B1F780EC8ADFF801808988237E
:1001900081F0E8016196CCDF89918111FCCF09C023
:1001A0008E01C6DF7E01FFEFEF1AFF0AC1E0D0E04B
:1001B000E0CFDF91CF911F910F91FF90EF900895C5
:1001C0001092900087E689B980E18AB986E0809331
:1001D000950008955F9BFECF8CB10895EF92FF923A
:1001E0000F931F93CF93DF93CDB7DEB7A4970FB6CE
:1001F000F894DEBF0FBECDBF8FEF8093610084BB4C
:10020000DFDF5FDFCE0101967C0100E010E0E2DF7E
:100210008A3031F0F70181937F010F5F1F4FF7CFD5
:10022000E1E0F0E0EC0FFD1FE00FF11F108280E82D
:1002300036DFCE01019692DF80E090E0A4960FB603
:10024000F894DEBF0FBECDBFDF91CF911F910F910C
:0A025000FF90EF900895F894FFCF9F
:00000001FF
